:10006D0090006AE0F58222E582900005F0E09000B4
:10007D006AF022E582900006F0E0FF7E001FBFFFD0
:10008D00011EEEC423CFC423541F6FCF541FCF6F57
:10009D00CF30E40244E00F8F8222E582900007F01A
:1000AD00E024F750067E017F0080047E007F008EE5
:1000BD008222D291D290C280C296C29722E58290BE
:1000CD00000BF01200BF900009E0FFE07004C29138
:1000DD008005BF0102C29090000BE0FF900008E088
:1000ED00FE90000AE0FD7B017C00C374049B7480CC
:1000FD008CF063F08095F050030201968D017A002B
:10010D00EBB50161ECB5025DC0058F018902790087
:10011D008E007D0090000CE849F0ED4AA3F0E4F567
:10012D0008F509D005C3E5089410E50964809480AD
:10013D00504F90000CE0A3E030E704D2978002C24C
:10014D0097D296C29690000CE0F9A3E0FAE929F94E
:10015D00EA33FA90000CE9F0EAA3F00508E4B508DB
:10016D00C4050980C079007A00C3E99410EA64805F
:10017D009480500DC297D296C29609B900EB0A80B1
:10018D00E80BBB00010C0200F7D291D29022900037
:10019D00EBE0FFBF0101229000EBE0FFBF0A004042
:1001AD003F9000EBE0FF5307078F060E0E0E9000F9
:1001BD0008E4F090000904F090000AF08E82C00768
:1001CD001200CAD0071F9000EBE014F090000874E5
:1001DD0080F090000923F090000AF08F820200CA8F
:1001ED009000EBE0FF24F650030202E79000EBE0F5
:1001FD00FFBF060050030202E79000EBE024FAFF78
:10020D00FE7404C39EFEE0FD1DE0FC7B0074032C18
:10021D00FCE43BFB9000287408F0E4A3F08C828B87
:10022D0083C007C006C0051219C3AB82900008E455
:10023D00F090000904F090000AF08B821200CAD0F1
:10024D0005D006D0079000EBE014F07B007C008E0B
:10025D00017A00C3EB99EC64808AF063F08095F02D
:10026D0050378B028D01EA29FA9000087480F090C6
:10027D000009E4F090000A04F08A82C007C006C0AD
:10028D0005C004C0031200CAD003D004D005D006A7
:10029D00D0070BBB00B90C80B67D007E008F037CB0
:1002AD0000C3ED9BEE64808CF063F08095F0506B95
:1002BD008D040C9000087480F090000923F09000DC
:1002CD000AF08C82C007C006C0051200CAD005D046
:1002DD0006D0070DBD00C60E80C39000EBE0FF24D5
:1002ED00FA40389000EBE0FF0F0F0F900008E4F09C
:1002FD00900009F090000A04F08F821200CA90005D
:10030D00EBE014F0E0FF9000087480F0900009E439
:10031D00F090000A04F08F820200CA229000EBE0F8
:10032D00FFBF050050030204959000EBE0FFBF0DE9
:10033D0001229000EBE0FFBF0900500D9000EBE0B3
:10034D0024FCFE3395E0FF80047E047F008E07744D
:10035D0004C39FFF9000EBE024F740099000EBE011
:10036D00FC7D0080047C087D0090000EECF0900078
:10037D00EBE024F7500D9000EBE024F8FB3395E013
:10038D00FD80047B017D0090000FEBF09000EBE011
:10039D0024F74027900008E4F0900009F090000A3F
:1003AD0004F08C82C007C006C0041200CAD004D06D
:1003BD0006D00790000EEC04F08025900008E4F0C4
:1003CD0090000904F090000AF08B82C007C006C0AF
:1003DD00031200CAD003D006D00790000FEB04F033
:1003ED009000EBE004F090000EE0FD7B007C008FB0
:1003FD00017A00C3EB99EC64808AF063F08095F08C
:10040D0050378B028D01EA29FA9000087480F09024
:10041D000009E4F090000A04F08A82C007C006C00B
:10042D0005C004C0031200CAD003D004D005D00605
:10043D00D0070BBB00B90C80B690000FE0FF7C001D
:10044D007D008E027B00C3EC9AED64808BF063F02F
:10045D008095F04001228C038F02EB2AFB9000085F
:10046D007480F090000923F090000AF08B82C00791
:10047D00C006C005C0041200CAD004D005D006D0F5
:10048D00070CBC00BD0D80BA9000EBE0FFBF05016D
:10049D00229000EBE0FF900008E4F0900009F0904E
:1004AD00000A04F08F821200CA9000EBE004F0E025
:1004BD00FF0F0F0F9000087480F0900009E4F0908A
:1004CD00000A04F08F820200CA9000ECE0FFBF0525
:1004DD000050030206479000ECE0FFBF0D01229093
:1004ED0000ECE0FFBF0900500D9000ECE024FCFE95
:1004FD003395E0FF80047E047F008E077404C39F54
:10050D00FF9000ECE024F740099000ECE0FC7D004A
:10051D0080047C087D00900010ECF09000ECE0244D
:10052D00F7500D9000ECE024F8FB3395E0FD8004CE
:10053D007B017D00900011EBF09000ECE024F74082
:10054D0028900008E4F0900009F090000A7404F07F
:10055D008C82C007C006C0041200CAD004D006D0D9
:10056D0007900010EC04F08027900008E4F0900054
:10057D000904F090000A7404F08B82C007C006C015
:10058D00031200CAD003D006D007900011EB04F07F
:10059D009000ECE004F0900010E0FD7B007C008FFB
:1005AD00017A00C3EB99EC64808AF063F08095F0DA
:1005BD0050388B028D01EA29FA9000087401F090F1
:1005CD000009E4F090000A7404F08A82C007C006A6
:1005DD00C005C004C0031200CAD003D004D005D09A
:1005ED0006D0070BBB00B80C80B5900011E0FF7C66
:1005FD00007D008E027B00C3EC9AED64808BF0636E
:10060D00F08095F04001228C038F02EB2AFB9000C5
:10061D00087401F0900009F090000A7404F08B82C8
:10062D00C007C006C005C0041200CAD004D005D052
:10063D0006D0070CBC00BC0D80B99000ECE0FFBFEC
:10064D000501229000ECE0FF900008E4F090000915
:10065D00F090000A7404F08F821200CA9000ECE052
:10066D0004F0E0FF0F0F0F9000087401F0900009E7
:10067D00E4F090000A7404F08F820200CA9000EC3E
:10068D00E0FFBF0101229000ECE0FFBF0A004042F5
:10069D009000ECE0FF5307078F060E0E0E9000083A
:1006AD00E4F090000904F090000A7404F08E82C00A
:1006BD00071200CAD0071F9000ECE014F09000085C
:1006CD007401F0900009F090000A7404F08F82021A
:1006DD0000CA9000ECE0FF24F650030207DD900005
:1006ED00ECE0FFBF060050030207DD9000ECE024B4
:1006FD00FAFFFE7404C39EFEE0FD1DE0FC7B00745A
:10070D00032CFCE43BFB9000287408F0E4A3F08C70
:10071D00828B83C007C006C0051219C3AB8290003F
:10072D0008E4F090000904F090000A7404F08B8244
:10073D001200CAD005D006D0079000ECE014F07B73
:10074D00007C008E017A00C3EB99EC64808AF06323
:10075D00F08095F050388B028D01EA29FA9000084F
:10076D007401F0900009E4F090000A7404F08A829C
:10077D00C007C006C005C004C0031200CAD003D014
:10078D0004D005D006D0070BBB00B80C80B57D009A
:10079D007E008F037C00C3ED9BEE64808CF063F0D4
:1007AD008095F0506E8D040C9000087401F090004F
:1007BD0009F090000A7404F08C82C007C006C005D1
:1007CD001200CAD005D006D0070DBD00C50E80C2DF
:1007DD009000ECE0FF24FA403A9000ECE0FF0F0FA0
:1007ED000F900008E4F0900009F090000A7404F0F6
:1007FD008F821200CA9000ECE014F0E0FF90000828
:10080D007401F0900009E4F090000A7404F08F82F6
:10081D000200CA229000EB7407F09000ECF09000FB
:10082D00ED7410F09000EE03F09000EF7401F09075
:10083D0000F0F0900008E4F0900009F090000A0438
:10084D00F075820F1200CA900008E4F0900009F0D4
:10085D0090000A7402F075820F1200CA900008E42D
:10086D00F0900009F090000A7403F075820F1200E9
:10087D00CA900008E4F0900009F090000A7404F0AA
:10088D0075820F1200CA900008E4F090000904F080
:10089D0090000AF075820F1200CA900008E4F090E3
:1008AD00000904F090000A04F075820F1200CA903E
:1008BD000008E4F090000904F090000A7403F0754C
:1008CD00820F1200CA900008E4F090000904F09025
:1008DD00000A7404F075820F1200CA900008E4F04B
:1008ED00900009F090000A04F07582091200CA9078
:1008FD000008E4F0900009F090000A7402F075828F
:10090D00091200CA900008E4F0900009F090000A66
:10091D007403F07582091200CA900008E4F090008B
:10092D0009F090000A7404F07582091200CA900053
:10093D0008E4F090000904F090000AF075820912A5
:10094D0000CA900008E4F090000904F090000A0439
:10095D00F07582091200CA900008E4F090000904B5
:10096D00F090000A7403F07582091200CA90000815
:10097D00E4F090000904F090000A7404F075820907
:10098D001200CA9000087407F0900009E4F090007E
:10099D000A04F075820A1200CA9000087407F090DC
:1009AD000009E4F090000A7402F075820A1200CA80
:1009BD009000087407F0900009E4F090000A7403A9
:1009CD00F075820A1200CA9000087407F0900009B1
:1009DD00E4F090000A7404F075820A1200CA9000C7
:1009ED00087407F09000097401F090000AF0758208
:1009FD000A1200CA9000087407F09000097401F003
:100A0D0090000A04F075820A1200CA90000874075B
:100A1D00F09000097401F090000A7403F075820AD9
:100A2D001200CA9000087407F09000097401F0904C
:100A3D00000A7404F075820A1200CA900008740747
:100A4D00F0900009E4F090000A04F075820B12009A
:100A5D00CA9000087407F0900009E4F090000A7441
:100A6D0002F075820B1200CA9000087407F0900016
:100A7D0009E4F090000A7403F075820B1200CA901D
:100A8D0000087407F0900009E4F090000A7404F077
:100A9D0075820B1200CA9000087407F0900009745B
:100AAD0001F090000AF075820B1200CA90000874D4
:100ABD0007F09000097401F090000A04F075820BA4
:100ACD001200CA9000087407F09000097401F090AC
:100ADD00000A7403F075820B1200CA9000087407A7
:100AED00F09000097401F090000A7404F075820B07
:100AFD001200CA9000087401F0900009E4F0900013
:100B0D000A04F075820C1200CA9000087401F0906E
:100B1D000009E4F090000A7402F075820C1200CA0C
:100B2D009000087401F0900009E4F090000A74033D
:100B3D00F075820C1200CA9000087401F090000943
:100B4D00E4F090000A7404F075820C1200CA900053
:100B5D00087401F0900009F090000AF075820C12F3
:100B6D0000CA9000087401F0900009F090000A048A
:100B7D00F075820C1200CA9000087401F090000903
:100B8D00F090000A7403F075820C1200CA900008F0
:100B9D007401F0900009F090000A7404F075820C55
:100BAD001200CA7E017F00C374049E74808FF063AF
:100BBD00F08095F040548E048F057A017B00C3744C
:100BCD00089A74808BF063F08095F040368A018C22
:100BDD0000900008E4F0900009F090000AE8F08918
:100BED0082C007C006C005C004C003C0021200CAFF
:100BFD00D002D003D004D005D006D0070ABA00BE6B
:100C0D000B80BB0EBE00A00F809D7E017F00C374C4
:100C1D00049E74808FF063F08095F040558E048FA4
:100C2D00057A017B00C374089A74808BF063F080A1
:100C3D0095F040378A018C00900008E4F09000098F
:100C4D0004F090000AE8F08982C007C006C005C014
:100C5D0004C003C0021200CAD002D003D004D005D4
:100C6D00D006D0070ABA00BD0B80BA0EBE009F0F8A
:100C7D00809C9000EBE0FF9000087480F0900009DC
:100C8D00E4F090000A04F08F821200CA9000EBE0AD
:100C9D00FF0F9000087480F0900009E4F090000AB6
:100CAD0004F08F821200CA9000087480F090000941
:100CBD0023F090000AF07582011200CA90000874AA
:100CCD0080F090000923F090000AF0758202120066
:100CDD00CA9000ECE0FF9000087401F0900009E468
:100CED00F090000A7404F08F821200CA9000ECE0BC
:100CFD00FF0F9000087401F0900009E4F090000AD5
:100D0D007404F08F821200CA9000087401F09000F4
:100D1D0009F090000A7404F07582011200CA900067
:100D2D00087401F0900009F090000A7404F07582C7
:100D3D00021200CAD282229000EEE0F5821200A7C4
:100D4D00AF829000EDE0F582C007120080AE82D038
:100D5D00079000EEE0FD540760098D035303077CF7
:100D6D000080047B087C009000EDE0FC5407600ED1
:100D7D0074075CD39408F4FA3395E0FC80047A0090
:100D8D007C008AF005F0E4800225E0D5F0FBFC90B4
:100D9D0000EBE0FAC3ED9A402AC0039000EBE0F9B6
:100DAD007A00740329F9E43AFA8D007B00C3E998BF
:100DBD00EA64808BF063F08095F0D0034005BE01AE
:100DCD000280047A0080027A019000ECE0F9C3ED14
:100DDD0099402AC0029000ECE0F87900740328F8DD
:100DED00E439F98D027D00C3E89AE964808DF063E2
:100DFD00F08095F0D0024005BE040280047D008095
:100E0D00027D01900012ECF0EA60099000127480EE
:100E1D004CF0800AED600790001274014CF09000C8
:100E2D0012E0900008F0900009EFF090000AEEF04B
:100E3D008B820200CA120F739000EEE0F582120051
:100E4D00A7AF829000EDE0F582C007120080AE8260
:100E5D00D0079000EEE0FD540760098D03530307A2
:100E6D007C0080047B087C009000EDE0FC54076062
:100E7D000E74075CD39408F4FA3395E0FC80047A81
:100E8D00007C008AF005F07401800225E0D5F0FBAE
:100E9D00FC9000EBE0FAC3ED9A402AC0039000EB02
:100EAD00E0F97A00740329F9E43AFA8D007B00C366
:100EBD00E998EA64808BF063F08095F0D0034005EB
:100ECD00BE010280047A0080027A019000ECE0F904
:100EDD00C3ED99402AC0029000ECE0F8790074034C
:100EED0028F8E439F98D027D00C3E89AE964808D14
:100EFD00F063F08095F0D0024005BE040280047DC1
:100F0D000080027D01900013ECF0EA60099000135F
:100F1D0074804CF0800AED600790001374014CF062
:100F2D00900013E0900008F0900009EFF090000A97
:100F3D00EEF08B820200CA9000EDE0F58222900067
:100F4D00EEE0F58222E582900015F0E0FF24DF400F
:100F5D0009900014E0FE24F75001229000EDEFF00F
:100F6D009000EEEEF0229000EDE0FFBF2002800336
:100F7D000210149000F0E0FEBE0102800302101476
:100F8D009000F0E4F09000ECE0FE9000EEE0FDC388
:100F9D009E40229000ECE0FE7C0074032EFEE43CAB
:100FAD00FC7B00C3EE9DEC64808BF063F08095F0CC
:100FBD0040030210A79000F1E0FEBE0419758202F5
:100FCD0012007412126A75820012133A9000F1E445
:100FDD00F09000F2F022C2820E9000F1EEF07582D8
:100FED000112007412126A7D007E00C3740A9D7492
:100FFD00808EF063F08095F040070DBD00ED0E8002
:10100D00EA1208210210A7BF010280030210A79067
:10101D0000F0E060030210A79000F07401F0900062
:10102D00EBE0FF9000EEE0FEC39F401F9000EBE071
:10103D00FF7D0074032FFFE43DFD7C00C3EF9EEDAB
:10104D0064808CF063F08095F0504F9000F2E0FFDB
:10105D00BF041912126A75820112133A75820212B7
:10106D0000749000F1E4F09000F2F022C2820F9033
:10107D0000F2EFF075820112007412126A7E007F89
:10108D0000C3740A9E74808FF063F08095F0400762
:10109D000EBE00ED0F80EA1208219000F0E0FFBFB8
:1010AD0001099000EDE02401F080069000EDE014C0
:1010BD00F09000EEE0FFBF100F9000EFE0FEBE01DC
:1010CD00079000EFE4F0800FBF010C9000EFE0708F
:1010DD00069000EF7401F09000EFE0FEBE01079066
:1010ED0000EEEF04F022EF149000EEF022AFF0AE20
:1010FD0083E582900016F0EEA3F0EFA3F0900016BA
:10110D00E0FDA3E0FEA3E0FF74082DF50EE43EF52F
:10111D000F8F1078017900C3740498748089F0637F
:10112D00F08095F0500122880A890BE4F50CF50D3D
:10113D00C3E50C9408E50D6480948040030211E32F
:10114D00C000C001A90C09E50C2DF8E50D3EFB8F83
:10115D000488828B838CF0122567F8AC0A90000806
:10116D00E8F0900009E4F090000AECF08982C007E5
:10117D00C006C005C004C001C0001200CAD000D016
:10118D0001D004D005D006D007E50C250EF8E50DED
:10119D00350FFAAB1088828A838BF0122567F89091
:1011AD000008F09000097401F090000AECF08982BB
:1011BD00C007C006C005C001C0001200CAD000D0D3
:1011CD0001D005D006D007050CE4B50C02050DD0F5
:1011DD0001D00002113D08B8000109021124AFF041
:1011ED00AE83E58290001BF0EEA3F0EFA3F090002C
:1011FD001BE0FDA3E0FEA3E0FF90001AE0F51290C6
:10120D000019E0F51179007A00C3E99408EA6480C9
:10121D00948050488900E804F513E92DF8EA3EFB67
:10122D008F0488828B838CF0122567900008F090D4
:10123D000009E512F090000AE511F0851382C00750
:10124D00C006C005C002C0011200CAD001D002D034
:10125D0005D006D00709B900B00A80AD227E017F06
:10126D0000C374049E74808FF063F08095F0405439
:10127D008E048F057A017B00C374089A74808BF0FD
:10128D0063F08095F040368A018C00900008E4F000
:10129D00900009F090000AE8F08982C007C006C0EE
:1012AD0005C004C003C0021200CAD002D003D0048E
:1012BD00D005D006D0070ABA00BE0B80BB0EBE000B
:1012CD00A00F809D7E017F00C374049E74808FF0FB
:1012DD0063F08095F040558E048F057A017B00C335
:1012ED0074089A74808BF063F08095F040378A0112
:1012FD008C00900008E4F090000904F090000AE8DA
:10130D00F08982C007C006C005C004C003C0021228
:10131D0000CAD002D003D004D005D006D0070ABA37
:10132D0000BD0B80BA0EBE009F0F809C22E58290FF
:10133D00001EF0E070067EAB7F0080047EB37F0060
:10134D008F057F007B007C00C3EB9404EC648094DC
:10135D00805061C2829000CB75F000C007C006C0FE
:10136D0005C004C0031210FAD003D004D005D00676
:10137D00D0077A00791419E970FC0ABAC80040F454
:10138D009000DB75F000C007C006C005C004C003A7
:10139D001210FAD003D004D005D006D0077A007908
:1013AD001419E970FC0ABAC80040F4D2820BBB00D4
:1013BD00970C80949000197401F090001AE4F0904D
:1013CD00006B75F000C007C006C0051211EBD0050B
:1013DD00D006D0079000197402F090001AE4F09036
:1013ED00007375F000C007C006C0051211EBD005E3
:1013FD00D006D0079000197403F090001AE4F09015
:10140D00007B75F000C007C006C0051211EBD005BA
:10141D00D006D0079000197404F090001AE4F090F3
:10142D00008375F000C007C006C0051211EBD00592
:10143D00D006D0079000197401F090001AF09000BA
:10144D008B75F000C007C006C0051211EBD005D09A
:10145D0006D0079000197402F090001A14F0900055
:10146D009375F000C007C006C0051211EBD005D072
:10147D0006D0079000197403F090001A7401F090D3
:10148D00008375F000C007C006C0051211EBD00532
:10149D00D006D0079000197404F090001A7401F072
:1014AD0090009B75F000C007C006C0051211EBD06F
:1014BD0005D006D0077B007C008B018C02C374A87D
:1014CD009974619A40070BBB00EF0C80ECC007C00C
:1014DD0006C00512126AD005D006D0079000197407
:1014ED0002F090001AE4F09000A375F000C007C060
:1014FD0006C0051211EBD005D006D0079000197467
:10150D0003F090001AE4F08E828D838FF01211EBB0
:10151D009000197401F090001AF09000BB75F00066
:10152D001211EB9000197402F090001A14F0900053
:10153D008B75F0001211EB9000197403F090001AE6
:10154D007401F09000C375F0000211EBE58290007C
:10155D001FF0900020E4F090001FE0FF7D007E0062
:10156D008F037C00C3ED9BEE64808CF063F080955F
:10157D00F0501D8D048CF005F07401800225E0D52E
:10158D00F0FBFC900020E04CF00DBD00D30E80D0A0
:10159D00900020E0F582229000F1E0F582121559BD
:1015AD00AF829000F2E0F582C007121559AE82D0DD
:1015BD0007EEC454F042078F820215C9E5829000F0
:1015CD0021F0D291D290C280C281C297900021E0C9
:1015DD00900022F07E007F00C3EE9408EF648094AB
:1015ED0080501F900022E030E704D2978002C2970E
:1015FD00D281C281900022E025E0F00EBE00D90F0D
:0D160D0080D6C280D280D291D290C28022BD
:1025BA00027884808E828478003C42427E42424283
:1025CA000082C6AA92828282007E40407C40407E7F
:1025DA00003C42424242423C00828244442810105B
:1025EA00007C42427C48444200784444784040405F
:1025FA00003070303030780000788404186080FC35
:10260A00008282828282AA540082C2A2928A86822E
:10261A000000183C7E7E3C180000183C7E7E3C1868
:10262A00007EFFFFFFFFFFFF7E7EFFFFFFFFFFFF32
:09263A007E0707100801010000F1
:10161A00E582900023F012166D1216807582701200
:10162A0016FDAF82BF010512168080F0900023E0FC
:10163A00F5821216FD1216E50216B212166D121670
:10164A00807582711216FDAF82BF01051216808065
:10165A00F0121769AF82C0071216E51216B2D00748
:10166A008F8222D295D294227E017F001EBEFF0174
:10167A001FEE4F70F722D294D29590000F12167275
:10168A00C29590000F021672C29490000712167249
:10169A00D295900007121672D29490000712167211
:1016AA00C295900007021672C29490000712167231
:1016BA00C295900007121672D29490000712167201
:1016CA00D29522C294900007121672C29590000712
:1016DA00121672D29490000F021672C294900007EA
:1016EA00121672D295900007121672D29490000FB9
:1016FA00021672E582900024F0E0FF7E00C2949008
:10170A000007C007C006121672D006D0078F047DE4
:10171A00008EF005F08006EC2CFCED33FDD5F0F7D9
:10172A00EC30E704D2958002C295900007C007C04A
:10173A0006121672D29490000F121672D006D007B3
:10174A000EBE080040B7C294D29590000F121672CE
:10175A00D29490000F121672A295E433F582229069
:10176A000025E4F07F00C294D29590000FC00712C2
:10177A001672D294900007121672D007A295E4331B
:10178A00FE8F057407C39DFD8DF005F0EE800225DE
:10179A00E0D5F0FBFD900025E04DF0900007C00772
:1017AA00121672D0070FBF080040BB1216E5900050
:1017BA0025E0F5822243A881D28822D2AFD2A9435A
:1017CA008901758C2C758A00D28C22C2AFC2A922DB
:0517DA00D2AFD2A922EC
:0600000002001102186A63
:03000B000217DFFA
:03006A0002000E83
:03000E0002196470
:1017DF00C020C0E0C0F0C082C083C007C006C005F3
:1017EF00C004C003C002C001C000C0D075D0001239
:1017FF00006DE58270389000F8E004F0120D44128D
:10180F000E429000F8E0FFBF05249000F9E0FF7E44
:10181F0000742C2FFFE43EFEC3EF94FFEE64809420
:10182F008050069000F9E004F09000F8E4F01217F1
:10183F00DA9000F9E0242CF58C758A00D28CD0D088
:10184F00D000D001D002D003D004D005D006D007ED
:10185F00D083D082D0F0D0E0D02032C020C0E0C002
:10186F00F0C082C083C007C006C005C004C003C05B
:10187F0002C001C000C0D075D000121645AF8290D3
:10188F0000F3E004F0E0FE24FD500302192790005E
:10189F00F3E4F0C00712006DE582D0077046BFEF8A
:1018AF000FC00712019BD0079000F47401F0803431
:1018BF00BFEB0FC007120329D0079000F57401F09A
:1018CF008022BFF70FC00712068AD0079000F67468
:1018DF0001F08010BFF30DC0071204D6D00790009F
:1018EF00F77401F0BFE91512006DAE82BE010675E7
:1018FF0082001200749000F9E4F0801CBFF51912F9
:10190F00126A12082112006DAF82BF0206758201A2
:10191F001200749000F9E4F012006DAF827E00C0E7
:10192F0007C0067487C0E07425C0E07480C0E01261
:10193F001B25E58124FBF581D0D0D000D001D0024A
:10194F00D003D004D005D006D007D083D082D0F0FA
:10195F00D0E0D0203212198A1217BF1208211217A5
:10196F00C5749CC0E07425C0E07480C0E0121B25D4
:0B197F001581158115811215A480FB55
:1025870063757272656E742073746174653A202581
:1025970064200A0D00636F6465206973207374619A
:0825A7007274696E67202100C7
:072643000000000000000090
:10198A00759850758920758DFDD28E22AF83E582B8
:10199A00900026F0EFA3F0900026E0FEA3E0FF8E71
:1019AA009910990280FB8E828F83223098FDAE991E
:0919BA007F00C2988E828F832207
:06004000E478FFF6D8FD94
:10001E007990E94400601B7A019025BA786A75A040
:10002E0000E493F2A308B8000205A0D9F4DAF27541
:02003E00A0FF21
:1019C300AF83E58290002AF0EFA3F090002AE0FEB7
:1019D300A3E0FF30E709C3E49EFCE49FFD80048E8F
:1019E300048F05900028E0FEA3E0FF30E709C3E47D
:1019F3009EFAE49FFB80048E028F0390002CEAF092
:101A0300EBA3F08C828D83121A2BAE82AF839000EE
:101A13002AE0A3E030E70CC3E49EFCE49FFD8C8244
:101A23008D83228E828F8322AF83E58290002EF0F6
:101A3300EFA3F0900030E4F090002EE0FEA3E0FF6F
:101A43007D0090002CE0FBA3E0FC235401FA7036E8
:101A5300EB2BFBEC33FC90002CEBF0ECA3F09000B1
:101A63002CE0FBA3E0FCC3EE9BEF9C5011ECC313F3
:101A7300CB13CBFC90002CEBF0ECA3F080080D9083
:101A83000030EDF080BC900030E0FF90002EE0FDD0
:101A9300A3E0FE90002CE0FBA3E0FCC3ED9BEE9CD7
:101AA300400B90002EEDC39BF0EE9CA3F090002C16
:101AB300E0FDA3E0C313CD13CDFE90002CEDF0EEBB
:101AC300A3F08F061FEE70C390002EE0FEA3E08EFE
:041AD30082F58322F3
:100046007800E84400600A790575A000E4F309D851
:10005600FC7865E84400600C7901900005E4F0A3A3
:04006600D8FCD9FAEF
:101AD700C01E85811E7E008E83121996D01E22AFEE
:101AE700F0AE83E582900032F0EEA3F0EFA3F09022
:101AF7000032E0FDA3E0FEA3E0FF900031E0FC90A0
:101B07000046E4F0A3F0A3F0900049EDF0EEA3F057
:101B1700EFA3F090004CECF0901AD7021C2EC01ED9
:101B2700E581F51E24FBFF900046E4F0A3F0A3F047
:101B3700E51E24FBF8900049E6F008E6A3F008E666
:101B4700A3F090004CEFF0901AD7121C2ED01E2253
:101B5700E582900042F0E0FF900038E0C0E0A3E0AB
:101B6700C0E0A3E0C0E0121B72800D900036E0C019
:101B7700E0A3E0C0E08F82221581158115819000D6
:101B870040E02401F0A3E03400F022E58290004316
:101B9700F0E02430FF24C6500D74072FFF90003566
:101BA700E060034307208F82021B57E582900044C1
:101BB700F0E0FFC4540FF582C007121B92D0075301
:101BC700070F8F82021B92E582900045F090003B41
:101BD700E0FCA3E0FDA3E0FEA3E0FF90003FE0FBF5
:101BE700751F20900045E0F98B00E828F8EF235493
:101BF7000148FBEC2CFCED33FDEE33FEEF33FFC366
:101C0700EB994007EBC399FB430401E51F14FA8ADC
:101C17001F70D590003BECF0EDA3F0EEA3F0EFA31F
:101C2700F090003FEBF022AF83E58290004DF0EF9C
:101C3700A3F090004DE0FEA3E0FF900036EEF0EF3A
:101C4700A3F0900046E0FDA3E0FEA3E0FF9000387C
:101C5700EDF0EEA3F0EFA3F0900040E4F0A3F090D6
:101C67000049E0FDA3E0FEA3E0FF8D828E838FF0A5
:101C7700122567FC90004974012DF0E43EA3F0EFB4
:101C8700A3F0EC7003022523BC2502800302251B69
:101C970090004FE4F0900050F0900051F090005207
:101CA700F0900053F0900054F0900055F0900056DB
:101CB700F0900058F0900059F0A3F090005B14F0FA
:101CC700A3F0900049E0FDA3E0FEA3E0FF8D828E24
:101CD700838FF0122567FBA3AD82AE83900049ED99
:101CE700F0EEA3F0EFA3F090005FEBF0BB25088BBD
:101CF70082121B57021C66BB30005003021DC7EB44
:101D070024C65003021DC790005BE0F514A3E0F55D
:101D17001574FFB51463B51560C005C006C00790FC
:101D27000059E0FAA3E0FF900068EAF0EFA3F09013
:101D3700000AC005C003122547AE82AF83D003D087
:101D4700058B027D00EA2EFEED3FFFEE24D0FEEF6D
:101D570034FFFF900059EEF0EFA3F0D007D006D084
:101D670005900059E0F5F0A3E045F06003021CD4AC
:101D77009000507401F0021CD4C005C006C0079043
:101D87000068E514F0E515A3F090000AC006C00549
:101D9700C003122547AA82AF83D003D005D0067EA1
:101DA70000EB2AFAEE3FFFEA24D0FAEF34FFFF9068
:101DB700005BEAF0EFA3F0D007D006D005021CD4F1
:101DC70090005FE0FBBB2E2FC005C006C007900048
:101DD7005BE0FAA3E0FFBAFF05BFFF028009D00767
:101DE700D006D005021CD4D007D006D00590005BE2
:101DF700E4F0A3F0021CD4BB61004014EB2485403F
:101E07000F90005F74DF5BF09000357401F0800580
:101E1700900035E4F090005FE0FBBB20028075BBCB
:101E27002B028067BB2D028059BB4202806FBB43E8
:101E370002807CBB44030220BEBB46030220E4BBF6
:101E47004803021CD4BB49030220BEBB4A03021C41
:101E5700D4BB4C028050BB4F030220CCBB500302C3
:101E6700202CBB53028077BB5403021CD4BB550301
:101E77000220D4BB58030220DCBB5A03021CD40245
:101E870020EC90004F7401F0021CD49000517401B3
:101E9700F0021CD49000527401F0021CD49000543C
:101EA7007401F0021CD49000557401F0021CD49008
:101EB7000054E0600E90004CE014F9F090005FE7EA
:101EC700F0800F90004CE024FEFFF08F0190005F40
:101ED700E7F090005FE0F582121B570220FB9000AD
:101EE7004CE024FDFFF08F01870509870609870766
:101EF700191990003BEDF0EEA3F0EFA3F08D828E61
:101F0700838FF012252F85821485831590005BE05F
:101F1700FAA3E0FDBAFF0DBDFF0A90005BE514F0E0
:101F2700E515A3F090004FE0704B900059E0FAA33D
:101F3700E0FDC3E5149AE5159D503A900059EAC3B0
:101F47009514F0ED9515A3F0900059E0FAA3E0FD84
:101F57008A068D071ABAFF011DEE4F6010758220A1
:101F6700C005C002121B57D002D00580E39000596C
:101F7700EAF0EDA3F090005BE0F517A3E0F5189009
:101F8700003BE0FAA3E0FDA3E0FF8A828D838FF098
:101F9700122567F516603CC3E4951774808518F021
:101FA70063F08095F0502C151774FFB517021518BC
:101FB700851682121B5790003BE0FAA3E0FDA3E0D1
:101FC700FF0ABA00010D90003BEAF0EDA3F0EFA382
:101FD700F080AC90004FE070030220FB900059E0C6
:101FE700FEA3E0FFC3E5149EE5159F40030220FB17
:101FF700900059EEC39514F0EF9515A3F090005992
:10200700E0FEA3E0FF8E028F051EBEFF011FEA4D13
:1020170070030220F3758220C007C006121B57D039
:1020270006D00780E090004CE024FDFDF08D01878D
:102037001909871A09871B191990003BE519F0E55B
:102047001AA3F0E51BA3F090003DE0FDBD80004022
:102057000890005F7443F08020BD60004008900046
:102067005F7450F08013BD4000400890005F7449D2
:10207700F0800690005F7458F090005FE0FDF582F5
:10208700C005121B5775823A121B57758230121BF7
:1020970057758278121B57D005BD4902800EBD5077
:1020A70002800990003CE0F582121BB290003BE0F1
:1020B700F582121BB2803D9000537401F0900058D6
:1020C700740AF0802F9000587408F0802790005809
:1020D700740AF0801F9000587410F0801790005613
:1020E7007401F0800F8B82121B578008900059EE05
:1020F700F0EFA3F0900056E0607190004CE024FCF4
:10210700FFF08F01870309870509870609870719E4
:10211700191990003BEBF0EDA3F0EEA3F0EFA3F05D
:1021270090003B74AFF07425A3F07480A3F0900087
:102137003BE0F519A3E0F51AA3E0F51B7401251997
:10214700FAE4351AFBAF1B90003BEAF0EBA3F0EF84
:10215700A3F0851982851A83851BF0122567FF7006
:1021670003021C668F82121B5780C3900058E070D1
:1021770003021C66900054E0604790004CE014F99D
:10218700F087077E007D007B0090003BEFF0EEA319
:10219700F0EDA3F0EBA3F0900053E0600302223EC2
:1021A70090003BE0FBA3E0A3E0A3E07D007E007F7F
:1021B7000090003BEBF0EDA3F0EEA3F0EFA3F0806F
:1021C70076900055E0602890004CE024FCFFF08FEB
:1021D70001870309870509870609870719191990D0
:1021E700003BEBF0EDA3F0EEA3F0EFA3F0804890F7
:1021F700004CE024FEFFF08F01870609870719EFDF
:102207003395E0FDFB90003BEEF0EFA3F0EDA3F07C
:10221700EBA3F0900053E0701E90003BE0FBA3E0BF
:10222700FDA3E0A3E07E007F0090003BEBF0EDA371
:10223700F0EEA3F0EFA3F0900053E0604190003B75
:10224700E0FBA3E0FDA3E0FEA3E0FF30E72B900057
:102257003BE0FBA3E0FDA3E0FEA3E0FFC3E49BFBA1
:10226700E49DFDE49EFEE49FFF90003BEBF0EDA3B1
:10227700F0EEA3F0EFA3F08005900053E4F0900098
:10228700577401F0900058E0F517751C65751D002F
:10229700E4F514F51590003FE4F0851782121BCE84
:1022A700900057E0702690003FE0C4F519851C8226
:1022B700851D83E0FFE5194207851C82851D83EF95
:1022C700F0151C74FFB51C02151D800C90003FE033
:1022D700FF851C82851D83F00514E4B514020515DE
:1022E700900057E0B40100E433F090003BE0FAA31C
:1022F700E0FBA3E0FEA3E0FFEA4B4E4F7097900090
:1023070066E51CF0E51DA3F090005DE514F0E5150A
:10231700A3F0900059E0F5F0A3E045F070099000B4
:10232700597401F0E4A3F0900050E0FFE07047908B
:10233700004FE0704185141C85151D900059E0FA87
:10234700A3E0FBC007AF1C0F8F067F00C3EE9AEF19
:102357009BD0075019758220C007C003C002121B0B
:1023670057D002D003D0071ABAFF011B80D59000BF
:1023770059EAF0EBA3F0900053E0602075822DC07E
:1023870007121B57D007900059E024FFFDA3E03444
:10239700FFFE900059EDF0EEA3F0805690005DE04F
:1023A700F5F0A3E045F0604A900051E060207582A7
:1023B7002BC007121B57D007900059E024FFFDA33D
:1023C700E034FFFE900059EDF0EEA3F0802490007A
:1023D70052E0601E758220C007121B57D00790007D
:1023E70059E024FFFDA3E034FFFE900059EDF0EE25
:1023F700A3F090004FE0704890005DE0F51CA3E06B
:10240700F51D900059E0FAA3E0FBC0078A068B0789
:102417001ABAFF011BC3E51C9EE51D9FD007505349
:10242700EF60067D307E0080047D207E008D82C0B7
:1024370007C003C002121B57D002D003D00780CABF
:10244700900059E0FEA3E0FF90005DE0F51CA3E0DB
:10245700F51DC3E51C9EE51D9F500F900059EEC367
:10246700951CF0EF951DA3F08011900059E4F0A39F
:10247700F08008900059EAF0EBA3F0900066E0FEC8
:10248700A3E0FF90005DE0F51CA3E0F51DAA1CADDD
:102497001D151C74FFB51C02151DEA4D6045900003
:1024A70057E0B40100E433F0900057E070140EBE1B
:1024B70000010F8E828F83E0C4540FFD90003FF020
:1024C700800E8E828F83E0FD53050F90003FEDF065
:1024D70090003FE0F582C007C006121B92D006D0DD
:1024E7000780AA90004FE07003021C66900059E035
:1024F700FEA3E0FF8E038F051EBEFF011FEB4D708D
:1025070003021C66758220C007C006121B57D0063F
:10251700D00780E08C82121B57021C66900040E0B7
:08252700FEA3E08E82F5832281
:0B25AF003C4E4F20464C4F41543E0074
:10252F00AA82AB831225676003A380F8C3E5829A62
:10253F00F582E5839BF58322AA83AB828BF0900013
:10254F0068E0A4F8A9F08AF0E0A429F98BF0A3E0E1
:08255F00A429F58388822222E1
:0D001100758120122583E582600302000E38
:1025670020F71430F6148883A88220F507E6A8839D
:1025770075830022E280F7E49322E022758200222D
:00000001FF
